:020000040800F2
:1000000000500020C1060008110700081107000871
:100010001107000811070008110700080000000080
:1000200000000000000000000000000011070008B0
:100030001107000800000000110700081107000860
:100040001107000811070008110700081107000830
:100050001107000811070008110700081107000820
:100060001107000811070008110700081107000810
:100070001107000811070008110700081107000800
:1000800011070008110700081107000811070008F0
:1000900011070008110700081107000811070008E0
:1000A00011070008110700081107000811070008D0
:1000B00011070008110700081107000811070008C0
:1000C00011070008110700081107000811070008B0
:1000D00011070008110700081107000811070008A0
:1000E00011070008110700080000000011070008B0
:1000F0001107000811070008110700081107000880
:10010000110700081107000811070008110700086F
:10011000110700081107000811070008110700085F
:10012000110700081107000811070008110700084F
:1001300010B5054C237833B9044B13B10448AFF321
:1001400000800123237010BD040000200000000087
:100150001407000808B5034B1BB103490348AFF36C
:10016000008008BD000000000800002014070008FF
:1001700070B50F4B0F4DAB42A3EB050607D0002423
:10018000B61055F8043B01349847A642F9D800F060
:10019000C1FA094D094B5E1BAB424FEAA60606D0D9
:1001A000002455F8043B01349847A642F9D870BDA5
:1001B0008C0700088C0700088C07000894070008CB
:1001C000704700BF704700BF024B13B1024800F0F8
:1001D00005B8704700000000E9010008002301464F
:1001E0001A46184600F014B838B5074D074C2C1BBA
:1001F000A41005D0013C55F8043D9847002CF9D1D6
:10020000BDE8384000F08CBA980700089407000851
:100210002DE9F8431B4D0646286898460F4691463F
:10022000FFF7CEFF184B1C681CB3286865681F2DAC
:1002300022DC4EB96B1C0235636044F82570FFF771
:10024000C1FF0020BDE8F883012304EB8501C1F85C
:100250008890D4F88821AB401A43022EC4F8882134
:10026000C1F80881E6D1D4F88C211A43C4F88C2156
:10027000E0E7064C1C60D8E7FFF7A4FF4FF0FF3023
:10028000E0E700BF0000002024000020280000203C
:1002900080B400AF1A4B1B68194A43F00103136086
:1002A00000BF174B1B6803F00203002BF9D0154B5E
:1002B00012221A60144B4FF4E0121A60104B1B68A4
:1002C0000F4A43F08073136000BF0D4B1B6803F0AF
:1002D0000073002BF9D00C4B1B6823F003030A4A70
:1002E00043F00203136000BF074B1B689B0803F039
:1002F0000303022BF8D100BF00BFBD4680BC70478E
:1003000000100240002002400410024080B582B07C
:1003100000AF00F097F800F049F900F0C1F8364856
:1003200000F076F9354800F073F900F019F903464A
:10033000FB80FB8840F6E44203FB02F2304BA3FB58
:100340000213D21A52081344DB0A3B602D4800F016
:100350005FF9FB88184600F071F92B4800F058F956
:100360003B682A4AA2FB03239B09184600F066F962
:100370002E2000F035F93B68254AA2FB03235909DA
:10038000244BA3FB0123DA0813469B0013445B00B4
:10039000CA1AD3B23033DBB2184600F021F93B68F9
:1003A0001C4AA2FB0323D9081A4BA3FB0123DA083A
:1003B00013469B0013445B00CA1AD3B23033DBB23E
:1003C000184600F00DF93968124BA3FB0123DA0837
:1003D00013469B0013445B00CA1AD3B23033DBB21E
:1003E000184600F0FDF80C4800F012F90B4800F038
:1003F00017F800BF99E700BF2C070008480700085E
:1004000001011000740700087C070008D34D62103A
:100410001F85EB51CDCCCCCC8807000840771B0062
:1004200080B483B000AF786000E000BF7B685A1EE4
:100430007A60002BF9D100BF00BF0C37BD4680BCED
:100440007047000080B400AF134B1B68124A43F0A2
:1004500005031360114B1B68104A23F00F03136050
:100460000E4B1B680D4A23F4706313600B4B1B6823
:100470000A4A43F430631360084B1B68074A23F4AD
:1004800070431360054B1B68044A43F480431360B8
:1004900000BFBD4680BC70471810024000080140F4
:1004A00080B500AF294B1B68284A43F400731360E2
:1004B000274B1B68264A23F440431360244B1B68D8
:1004C000234A43F400431360224B1B68214A23F064
:1004D000070313601F4B1B681E4A43F0070313609A
:1004E0001D4B00221A601D4B1B681C4A23F460231D
:1004F00013601A4B1B68194A43F4F0131360174B2F
:100500001B68164A43F00103136042F21070FFF7B4
:1005100087FF124B1B68114A43F00803136000BFAA
:100520000E4B1B6803F00803002BF9D10B4B1B6823
:100530000A4A43F00403136000BF084B1B6803F032
:100540000403002BF9D100BF00BF80BD181002408A
:1005500004100240102401403424014008240140CA
:1005600080B400AF0E4B1B680D4A43F001031360CB
:100570000B4B1B680A4A43F48003136000BF094B0E
:100580001B6803F00203002BF9D0074B1B689BB2DA
:10059000C3F30B039BB21846BD4680BC704700BF37
:1005A00008240140002401404C24014080B400AFE5
:1005B000084B1B68074A43F400331360064B40F6B0
:1005C000A6621A60054B42F208021A6000BFBD46DF
:1005D00080BC70471C100240084400400C4400409E
:1005E00080B483B000AF0346FB7100BF064B1B68AD
:1005F00003F08003002BF9D0044AFB79136000BF9D
:100600000C37BD4680BC70470044004004440040A5
:1006100080B582B000AF786006E07B685A1C7A60D3
:100620001B781846FFF7DCFF7B681B78002BF4D1A2
:1006300000BF00BF0837BD4680BD000080B586B052
:1006400000AF786000237B617B68002B1DD13020D8
:10065000FFF7C6FF2EE07968184BA3FB0123DA08E9
:1006600013469B0013445B00CA1AD2B27B69591C23
:1006700079613032D2B218333B4403F8102C7B68D6
:100680000E4AA2FB0323DB087B607B68002B0ED0A5
:100690007B69092BDFD90AE07B69013B7B6107F1AC
:1006A00008027B6913441B781846FFF799FF7B69A2
:1006B000002BF1D11837BD4680BD00BFCDCCCCCCCE
:1006C0000D488546FFF7E4FD0C480D490D4A00230F
:1006D00002E0D458C4500433C4188C42F9D30A4AF7
:1006E0000A4C002301E013600432A242FBD3FFF75F
:1006F0003FFDFFF70BFEFEE700500020000000204A
:10070000040000209807000804000020B801002021
:10071000FEE70000F8B500BFF8BC08BC9E46704775
:0C072000F8B500BFF8BC08BC9E4670474E
:10072C000D0A53544D333220414443205541525409
:10073C002072656164790D0A000000005041302080
:10074C002D3E20414443315F494E302C20504132E4
:10075C00202D3E205553415254325F545820393687
:10076C0030300D0A000000004144433D0000000001
:10077C002C20566F6C746167653D0000560D0A00A5
:08078C00C90100085501000835
:040794003101000827
:04079800200000201D
:04000005080006C128
:00000001FF
