:020000040800F2
:100000000050002065050008B5050008B50500088A
:10001000B5050008B5050008B5050008000000009A
:10002000000000000000000000000000B50500080E
:10003000B505000800000000B5050008B50500087A
:10004000B5050008B5050008B5050008B5050008A8
:10005000B5050008B5050008B5050008B505000898
:10006000B5050008B5050008B5050008B505000888
:10007000B5050008B5050008B5050008B505000878
:10008000B5050008B5050008B5050008B505000868
:10009000B5050008B5050008B5050008B505000858
:1000A000B5050008B5050008B5050008B505000848
:1000B000B5050008B5050008B5050008B505000838
:1000C000B5050008B5050008B5050008B505000828
:1000D000B5050008B5050008B5050008B505000818
:1000E000B5050008B505000800000000B5050008CA
:1000F000B5050008B5050008B5050008B5050008F8
:10010000B5050008B5050008B5050008B5050008E7
:10011000B5050008B5050008B5050008B5050008D7
:10012000B5050008B5050008B5050008B5050008C7
:1001300010B5054C237833B9044B13B10448AFF321
:1001400000800123237010BD040000200000000087
:10015000B805000808B5034B1BB103490348AFF3CA
:10016000008008BD0000000008000020B80500085D
:1001700070B50F4B0F4DAB42A3EB050607D0002423
:10018000B61055F8043B01349847A642F9D800F060
:1001900013FA094D094B5E1BAB424FEAA60606D087
:1001A000002455F8043B01349847A642F9D870BDA5
:1001B00000060008000600080006000808060008FF
:1001C000704700BF704700BF024B13B1024800F0F8
:1001D00005B8704700000000E9010008002301464F
:1001E0001A46184600F014B838B5074D074C2C1BBA
:1001F000A41005D0013C55F8043D9847002CF9D1D6
:10020000BDE8384000F0DEB90C060008080600081A
:100210002DE9F8431B4D0646286898460F4691463F
:10022000FFF7CEFF184B1C681CB3286865681F2DAC
:1002300022DC4EB96B1C0235636044F82570FFF771
:10024000C1FF0020BDE8F883012304EB8501C1F85C
:100250008890D4F88821AB401A43022EC4F8882134
:10026000C1F80881E6D1D4F88C211A43C4F88C2156
:10027000E0E7064C1C60D8E7FFF7A4FF4FF0FF3023
:10028000E0E700BF0000002024000020280000203C
:1002900080B400AF00BFBD4680BC704780B400AFE3
:1002A000064B41F63F721A60054B00221A60054B5F
:1002B00005221A6000BFBD4680BC704714E000E014
:1002C00018E000E010E000E080B483B000AF786098
:1002D0000BE000BF0A4B1B6803F48033002BF9D0FE
:1002E000084B1B680133074A13607B685A1E7A600B
:1002F000002BEED100BF00BF0C37BD4680BC70475D
:1003000010E000E0B801002080B400AF024B1B6891
:100310001846BD4680BC7047B801002080B400AFCD
:10032000114B1B68104A43F0050313600F4B1B6809
:100330000E4A43F4003313600D4B1B680C4A23F440
:10034000706313600A4B1B68094A43F430631360FF
:10035000084B40F241321A60074B42F208021A6021
:1003600000BFBD4680BC7047181002401C10024000
:1003700000080140084400400C44004080B400AF35
:100380000D4B1B680C4A43F0100313600B4B1B68AA
:100390000A4A23F470031360084B1B68074A43F4AE
:1003A00000031360064B1B68054A43F400531360B7
:1003B00000BFBD4680BC70471810024004100140C9
:1003C0000C10014080B400AF064B1B6803F40053CF
:1003D000002B0CBF01230023DBB21846BD4680BCB6
:1003E000704700BF0810014080B483B000AF0346DF
:1003F000FB7100BF064B1B6803F08003002BF9D094
:10040000044AFB79136000BF0C37BD4680BC7047BF
:10041000004400400444004080B582B000AF7860E2
:1004200006E07B685A1C7A601B781846FFF7DCFFF1
:100430007B681B78002BF4D100BF00BF0837BD4696
:1004400080BD000080B586B000AF786000237B617E
:100450007B68002B1DD13020FFF7C6FF2BE07968A9
:10046000164BA3FB0123DA0813469B0013445B00E1
:10047000CA1AD2B27B69591C79613032D2B21833B0
:100480003B4403F8102C7B680C4AA2FB0323DB08D7
:100490007B607B68002BE2D10AE07B69013B7B61DA
:1004A00007F108027B6913441B781846FFF79CFF8D
:1004B0007B69002BF1D11837BD4680BDCDCCCCCCAB
:1004C00080B586B000AF00237B6100233B61FFF75E
:1004D000E5FEFFF723FFFFF751FFFFF715FFF86079
:1004E000FFF770FFB860BB68002B07D07B69002B5B
:1004F00004D1FB683B611648FFF78EFFBB68002BF9
:1005000020D17B69002B1DD0FA683B69D31A7B6030
:100510001048FFF781FF7868FFF794FF0E48FFF758
:100520007BFF7B6841F22432934208D97B6841F219
:100530006F72934203D80948FFF76EFF02E0084844
:10054000FFF76AFFBB687B610120FFF7BDFEC4E7D0
:10055000D0050008D8050008E4050008EC050008EF
:10056000F80500080D488546FFF792FE0C480D4936
:100570000D4A002302E0D458C4500433C4188C42FE
:10058000F9D30A4A0A4C002301E013600432A24264
:10059000FBD3FFF7EDFDFFF793FFFEE700500020D0
:1005A00000000020040000200C06000804000020C9
:1005B000BC010020FEE70000F8B500BFF8BC08BC95
:1005C0009E467047F8B500BFF8BC08BC9E46704711
:1005D00053544152540D0A006475726174696F6E10
:1005E0003D000000206D732C200000005355434354
:1005F0004553530D0A0000004641494C0D0A0000C6
:08060000C901000855010008C2
:0406080031010008B4
:04060C0020000020AA
:040000050800056585
:00000001FF
