:020000040800F2
:1000000000500020ED0600083D0700083D070008ED
:100010003D0700083D0700083D07000800000000FC
:100020000000000000000000000000003D07000884
:100030003D070008000000003D0700083D070008DC
:100040003D0700083D0700083D0700083D07000880
:100050003D0700083D0700083D0700083D07000870
:100060003D0700083D0700083D0700083D07000860
:100070003D0700083D0700083D0700083D07000850
:100080003D0700083D0700083D0700083D07000840
:100090003D0700083D0700083D0700083D07000830
:1000A0003D0700083D0700083D0700083D07000820
:1000B000DD0500083D0700083D0700083D07000872
:1000C0003D0700083D0700083D0700083D07000800
:1000D0003D0700083D070008410600083D070008ED
:1000E0003D0700083D070008000000003D0700082C
:1000F0003D0700083D0700083D0700083D070008D0
:100100003D0700083D0700083D0700083D070008BF
:100110003D0700083D0700083D0700083D070008AF
:100120003D0700083D0700083D0700083D0700089F
:1001300010B5054C237833B9044B13B10448AFF321
:1001400000800123237010BD040000200000000087
:100150004007000808B5034B1BB103490348AFF340
:10016000008008BD000000000800002040070008D3
:1001700070B50F4B0F4DAB42A3EB050607D0002423
:10018000B61055F8043B01349847A642F9D800F060
:10019000D7FA094D094B5E1BAB424FEAA60606D0C3
:1001A000002455F8043B01349847A642F9D870BDA5
:1001B000680700086807000868070008700700085B
:1001C000704700BF704700BF024B13B1024800F0F8
:1001D00005B8704700000000E9010008002301464F
:1001E0001A46184600F014B838B5074D074C2C1BBA
:1001F000A41005D0013C55F8043D9847002CF9D1D6
:10020000BDE8384000F0A2BA740700087007000883
:100210002DE9F8431B4D0646286898460F4691463F
:10022000FFF7CEFF184B1C681CB3286865681F2DAC
:1002300022DC4EB96B1C0235636044F82570FFF771
:10024000C1FF0020BDE8F883012304EB8501C1F85C
:100250008890D4F88821AB401A43022EC4F8882134
:10026000C1F80881E6D1D4F88C211A43C4F88C2156
:10027000E0E7064C1C60D8E7FFF7A4FF4FF0FF3023
:10028000E0E700BF0000002024000020280000203C
:1002900080B400AF62B600BFBD4680BC704780B47A
:1002A00083B000AFEFF310837B6072B67B681846B3
:1002B0000C37BD4680BC704780B483B000AF786017
:1002C0007B6803F00103002B00D162B600BF0C373E
:1002D000BD4680BC704780B400AF30BF00BFBD4694
:1002E00080BC704780B483B000AF78607B6803F057
:1002F0001F027B685B099B0003F1604303F56143C8
:10030000012101FA02F21A6000BF0C37BD4680BC21
:10031000704780B485B000AF78600023FB6002E0D6
:10032000FB680133FB607A68FB6813441B78002B81
:10033000F6D1FB6818461437BD4680BC70470000F4
:1003400080B400AF034B4FF480721A6100BFBD460A
:1003500080BC70470010014080B400AF034B4FF4E5
:1003600080725A6100BFBD4680BC704700100140DA
:1003700080B483B000AF786039603B68002B1AD03E
:100380000F4B1B68002B06D00E4A7B6813600E4A89
:100390003B68136010E00D4A7B681360084A3B68B5
:1003A00013600B4B00221A600A4BDB68094A43F0CA
:1003B0008003D36000E000BF0C37BD4680BC7047AF
:1003C000C8010020D0010020D4010020C401002079
:1003D000CC0100200044004080B584B000AF7860BC
:1003E000FFF75DFFF8607868FFF793FF0346194653
:1003F0007868FFF7BDFFF868FFF75EFF00BF1037B2
:10040000BD4680BD80B582B000AF78607868FFF7E8
:1004100080FF034619467868FFF7AAFF00BF083738
:10042000BD4680BD80B500AF0648FFF7D5FF064B3F
:100430001B6803F6B833054A1360054B01221A7096
:1004400000BF80BD58070008B8010020C00100208F
:10045000BC01002080B584B000AF7860084B1B68F9
:10046000FB6001E0FFF737FF054B1A68FB68D31A02
:100470007A689A42F6D800BF00BF1037BD4680BDEB
:10048000B801002080B500AF174B9B69164A43F0B6
:1004900015039361154B5B68154B1B68144A23F4D5
:1004A00070631360124B1B68114A43F4206313609E
:1004B0000F4B1B680E4A23F4704313600C4B1B68F0
:1004C0000B4A43F4804313600A4B5B68094A23F0EC
:1004D0000F035360074B5B68064A43F00203536007
:1004E000FFF73AFF00BF80BD00100240000001404E
:1004F000000801400010014080B500AF0A4BDB69E5
:10050000094A43F40033D361084B0022DA60074BF9
:1005100040F241329A60054B42F20802DA6026202E
:10052000FFF7E0FE00BF80BD001002400044004025
:1005300080B500AF134BDB69124A43F00103D3616E
:100540004FF0804300221A604FF0804307229A62E6
:100550004FF0804340F2E732DA624FF080430122ED
:100560005A614FF0804300221A614FF0804301220C
:10057000DA601C20FFF7B6FE4FF0804301221A60BC
:1005800000BF80BD0010024080B500AFFFF77AFFCA
:10059000FFF7B2FFFFF7CCFFFFF77AFE00BF80BD89
:1005A00080B400AF00BFBD4680BC704780B500AFCF
:1005B000FFF7EAFFFFF7C4FE4FF47A70FFF74AFF38
:1005C000FFF730FF4FF4FA60FFF744FFFFF7C4FE78
:1005D0004FF47A70FFF73EFF00BFEBE780B500AF46
:1005E0004FF080431B6903F00103002B1ED04FF036
:1005F00080431B694FF0804223F0010313610C4BD1
:100600001B6801330A4A13600A4B1B78DBB2012BCB
:100610000CD1074B1A68084B1B68D31A002B05DB5B
:100620000648FFF7EFFE034B02221A7000BF80BDA1
:10063000B8010020BC010020C001002060070008B4
:1006400080B582B000AF234BDB6803F08003002B42
:100650003CD0204B1B6803F08003002B36D01E4B90
:100660001A681E4B1B689A420DD21D4B1A681A4B12
:100670001B6813441A78174B5A60174B1B680133D9
:10068000154A136022E0134BDB68124A23F0800303
:10069000D360134B00221A60104B00221A600E4BDD
:1006A00000221A600F4B1B68002B0FD00E4B1B68EB
:1006B0007B600C4B1B683B600B4B00221A60094BA4
:1006C00000221A6039687868FFF752FE00BF0837C9
:1006D000BD4680BD00440040CC010020C801002080
:1006E000C4010020D4010020D00100200D4885461F
:1006F000FFF756FF0C480D490D4A002302E0D4587D
:10070000C4500433C4188C42F9D30A4A0A4C00235B
:1007100001E013600432A242FBD3FFF729FDFFF78B
:1007200045FFFEE7005000200000002004000020EC
:100730007407000804000020D8010020FEE7000034
:10074000F8B500BFF8BC08BC9E467047F8B500BFBE
:08075000F8BC08BC9E4670478E
:1007580048490D0A000000004279650D0A000000B2
:08076800C90100085501000859
:04077000310100084B
:040774002000002041
:04000005080006EDFC
:00000001FF
