:020000040800F2
:100000000050002025030008750300087503000850
:100010007503000875030008750300080000000060
:100020000000000000000000000000007503000850
:100030007503000800000000750300087503000840
:1000400075030008750300087503000875030008B0
:1000500075030008750300087503000875030008A0
:100060007503000875030008750300087503000890
:100070007503000875030008750300087503000880
:100080007503000875030008750300087503000870
:100090007503000875030008750300087503000860
:1000A0007503000875030008750300087503000850
:1000B0007503000875030008750300087503000840
:1000C0007503000875030008750300087503000830
:1000D0007503000875030008750300087503000820
:1000E0007503000875030008000000007503000890
:1000F0007503000875030008750300087503000800
:1001000075030008750300087503000875030008EF
:1001100075030008750300087503000875030008DF
:1001200075030008750300087503000875030008CF
:1001300010B5054C237833B9044B13B10448AFF321
:1001400000800123237010BD040000200000000087
:100150007803000808B5034B1BB103490348AFF30C
:10016000008008BD0000000008000020780300089F
:1001700070B50F4B0F4DAB42A3EB050607D0002423
:10018000B61055F8043B01349847A642F9D800F060
:10019000F3F8094D094B5E1BAB424FEAA60606D0A9
:1001A000002455F8043B01349847A642F9D870BDA5
:1001B00090030008900300089003000898030008CB
:1001C000704700BF704700BF024B13B1024800F0F8
:1001D00005B8704700000000E9010008002301464F
:1001E0001A46184600F014B838B5074D074C2C1BBA
:1001F000A41005D0013C55F8043D9847002CF9D1D6
:10020000BDE8384000F0BEB89C0300089803000821
:100210002DE9F8431B4D0646286898460F4691463F
:10022000FFF7CEFF184B1C681CB3286865681F2DAC
:1002300022DC4EB96B1C0235636044F82570FFF771
:10024000C1FF0020BDE8F883012304EB8501C1F85C
:100250008890D4F88821AB401A43022EC4F8882134
:10026000C1F80881E6D1D4F88C211A43C4F88C2156
:10027000E0E7064C1C60D8E7FFF7A4FF4FF0FF3023
:10028000E0E700BF0000002024000020280000203C
:1002900080B483B000AF786000BF7B685A1E7A607C
:1002A000002BFAD100BF00BF0C37BD4680BC7047A1
:1002B00080B500AF164B1B68154A43F0140313605A
:1002C000144B1B68134A23F470031360114B1B6813
:1002D000104A43F4001313600F4B1B680E4A23F0BF
:1002E0000F0313600C4B1B680B4A43F002031360AF
:1002F0000A4B4FF480721A600948FFF7C9FF074B99
:100300004FF080721A600648FFF7C2FF00BFEFE7A8
:100310001810024000080140041001401010014074
:1003200020A107000D488546AFF300800C480D4919
:100330000D4A002302E0D458C4500433C4188C4240
:10034000F9D30A4A0A4C002301E013600432A242A6
:10035000FBD3FFF70DFFFFF7ABFFFEE700500020D8
:1003600000000020040000209C030008040000207E
:10037000B8010020FEE70000F8B500BFF8BC08BCDB
:100380009E467047F8B500BFF8BC08BC9E46704753
:08039000C90100085501000835
:040398003101000827
:04039C00200000201D
:0400000508000325C7
:00000001FF
