:020000040800F2
:10000000005000202504000875040008750400084D
:10001000750400087504000875040008000000005D
:10002000000000000000000000000000750400084F
:10003000750400080000000075040008750400083D
:1000400075040008750400087504000875040008AC
:10005000750400087504000875040008750400089C
:10006000750400087504000875040008750400088C
:10007000750400087504000875040008750400087C
:10008000750400087504000875040008750400086C
:10009000750400087504000875040008750400085C
:1000A000750400087504000875040008750400084C
:1000B000750400087504000875040008750400083C
:1000C000750400087504000875040008750400082C
:1000D000750400087504000875040008750400081C
:1000E000750400087504000800000000750400088D
:1000F00075040008750400087504000875040008FC
:1001000075040008750400087504000875040008EB
:1001100075040008750400087504000875040008DB
:1001200075040008750400087504000875040008CB
:1001300010B5054C237833B9044B13B10448AFF321
:1001400000800123237010BD040000200000000087
:100150007804000808B5034B1BB103490348AFF30B
:10016000008008BD0000000008000020780400089E
:1001700070B50F4B0F4DAB42A3EB050607D0002423
:10018000B61055F8043B01349847A642F9D800F060
:1001900073F9094D094B5E1BAB424FEAA60606D028
:1001A000002455F8043B01349847A642F9D870BDA5
:1001B000D0040008D0040008D0040008D8040008C7
:1001C000704700BF704700BF024B13B1024800F0F8
:1001D00005B8704700000000E9010008002301464F
:1001E0001A46184600F014B838B5074D074C2C1BBA
:1001F000A41005D0013C55F8043D9847002CF9D1D6
:10020000BDE8384000F03EB9DC040008D80400081E
:100210002DE9F8431B4D0646286898460F4691463F
:10022000FFF7CEFF184B1C681CB3286865681F2DAC
:1002300022DC4EB96B1C0235636044F82570FFF771
:10024000C1FF0020BDE8F883012304EB8501C1F85C
:100250008890D4F88821AB401A43022EC4F8882134
:10026000C1F80881E6D1D4F88C211A43C4F88C2156
:10027000E0E7064C1C60D8E7FFF7A4FF4FF0FF3023
:10028000E0E700BF0000002024000020280000203C
:1002900080B400AF00BFBD4680BC704780B400AFE3
:1002A000094B1B68084A43F080731360074B002218
:1002B0001A60074B1B68064A43F00103136000BF36
:1002C000BD4680BC704700BFFCED00E0041000E0BC
:1002D000001000E080B485B000AF7860094B1B6867
:1002E000FB607B68DB00BB6000BF064B1A68FB68E5
:1002F000D31ABA689A42F8D800BF00BF1437BD4677
:1003000080BC7047041000E080B400AF034B4FF492
:1003100080721A6000BFBD4680BC7047101001405B
:1003200080B400AF034B4FF080721A6000BFBD462F
:1003300080BC70471010014080B582B000AF002330
:100340007B600F4B1B680E4A43F0100313600D4B8C
:100350001A680F217B6801FA03F3DB430949134054
:100360000B60084B1A6801217B6801FA03F3054909
:1003700013430B60FFF7D4FF00BF0837BD4680BDB5
:10038000181002400410014080B584B000AF7860BE
:100390007B68642202FB03F30E4AA2FB03235B0982
:1003A000FB60FB68C3F16403BB60FB68002B04D0F7
:1003B000FFF7AAFFF868FFF78DFFBB68002B04D09A
:1003C000FFF7AEFFB868FFF785FF00BF1037BD46E7
:1003D00080BD00BF1F85EB5180B584B000AF4023C6
:1003E0007B60FFF75BFFFFF7A7FF0023FB6012E0D6
:1003F0000023BB6009E00A4AFB6813441B781846D7
:10040000FFF7C2FFBB680133BB60BB68012BF2D9A9
:10041000FB680133FB60FA687B689A42E8D3E4E743
:10042000900400080D488546FFF732FF0C480D493F
:100430000D4A002302E0D458C4500433C4188C423F
:10044000F9D30A4A0A4C002301E013600432A242A5
:10045000FBD3FFF78DFEFFF7BFFFFEE70050002044
:100460000000002004000020DC040008040000203C
:10047000B8010020FEE70000F8B500BFF8BC08BCDA
:100480009E467047F8B500BFF8BC08BC9E46704752
:1004900032373C41454A4E5255585B5E6062636458
:1004A00064646362605E5B5855524E4A45413C3716
:1004B000322D28231F1A16120F0C09060402010000
:1004C000000001020406090C0F12161A1F23282D22
:0804D000C901000855010008F4
:0404D80031010008E6
:0404DC0020000020DC
:0400000508000425C6
:00000001FF
