:020000040800F2
:100000000050002085040008D5040008D50400082D
:10001000D5040008D5040008D5040008000000003D
:10002000000000000000000000000000D5040008EF
:10003000D504000800000000D5040008D50400081D
:10004000D5040008D5040008D5040008D50400082C
:10005000D5040008D5040008D5040008D50400081C
:10006000D5040008D5040008D5040008D50400080C
:10007000D5040008D5040008D5040008D5040008FC
:10008000D5040008D5040008D5040008D5040008EC
:10009000D5040008D5040008D5040008D5040008DC
:1000A000D5040008D5040008D5040008D5040008CC
:1000B000D5040008D5040008D5040008D5040008BC
:1000C000D5040008D5040008D5040008D5040008AC
:1000D000D5040008D5040008D5040008D50400089C
:1000E000D5040008D504000800000000D50400086D
:1000F000D5040008D5040008D5040008D50400087C
:10010000D5040008D5040008D5040008D50400086B
:10011000D5040008D5040008D5040008D50400085B
:10012000D5040008D5040008D5040008D50400084B
:1001300010B5054C237833B9044B13B10448AFF321
:1001400000800123237010BD040000200000000087
:10015000D804000808B5034B1BB103490348AFF3AB
:10016000008008BD0000000008000020D80400083E
:1001700070B50F4B0F4DAB42A3EB050607D0002423
:10018000B61055F8043B01349847A642F9D800F060
:10019000A3F9094D094B5E1BAB424FEAA60606D0F8
:1001A000002455F8043B01349847A642F9D870BDA5
:1001B000F0040008F0040008F0040008F804000847
:1001C000704700BF704700BF024B13B1024800F0F8
:1001D00005B8704700000000E9010008002301464F
:1001E0001A46184600F014B838B5074D074C2C1BBA
:1001F000A41005D0013C55F8043D9847002CF9D1D6
:10020000BDE8384000F06EB9FC040008F8040008AE
:100210002DE9F8431B4D0646286898460F4691463F
:10022000FFF7CEFF184B1C681CB3286865681F2DAC
:1002300022DC4EB96B1C0235636044F82570FFF771
:10024000C1FF0020BDE8F883012304EB8501C1F85C
:100250008890D4F88821AB401A43022EC4F8882134
:10026000C1F80881E6D1D4F88C211A43C4F88C2156
:10027000E0E7064C1C60D8E7FFF7A4FF4FF0FF3023
:10028000E0E700BF0000002024000020280000203C
:1002900080B483B000AF786000E000BF7B685A1E76
:1002A0007A60002BF9D100BF00BF0C37BD4680BC7F
:1002B0007047000080B500AF264B1B68254A43F409
:1002C00001731360244B1B68234A23F440431360DB
:1002D000214B1B68204A43F4004313601F4B1B68EB
:1002E0001E4A23F00F0313601D4B1B681C4A23F0AA
:1002F000070313601A4B1B68194A43F00703136086
:10030000184B00221A60184B1B68174A43F0010370
:1003100013604FF47A70FFF7BBFF134B1B68124A50
:1003200043F00803136000BF0F4B1B6803F0080382
:10033000002BF9D10C4B1B680B4A43F004031360EC
:1003400000BF094B1B6803F00403002BF9D100BF69
:1003500000BF80BD18100240041002400008014098
:1003600010240140342401400824014080B400AF2F
:100370000A4B1B68094A43F008031360084B1B68CB
:10038000074A23F00F031360054B1B68044A43F030
:100390000203136000BFBD4680BC704718100240C6
:1003A000040C014080B483B000AF0346FB71FB79BD
:1003B000002B04D0064B4FF480721A6003E0044B0C
:1003C0004FF080721A6000BF0C37BD4680BC70478A
:1003D000100C014080B400AF0B4B1B680A4A43F479
:1003E0008003136000BF094B1B6803F00203002B5E
:1003F000F9D0074B1B689BB2C3F30B039BB21846A3
:10040000BD4680BC704700BF082401400024014065
:100410004C24014080B500AFFFF74CFFFFF7A6FF6B
:10042000FFF7D8FF03461A46124B1A80114B1B8860
:100430009BB21A4640F6E44303FB02F20E4BA3FBC9
:100440000213D21A52081344DB0A0C4A1360094BF8
:100450001B889BB240F2FF72934294BF012300239A
:10046000DBB21846FFF79EFF0548FFF711FF00BFFC
:10047000D6E700BFB801002001011000BC01002038
:1004800080FC0A000D488546AFF300800C480D49FA
:100490000D4A002302E0D458C4500433C4188C42DF
:1004A000F9D30A4A0A4C002301E013600432A24245
:1004B000FBD3FFF75DFEFFF7ADFFFEE70050002026
:1004C0000000002004000020FC04000804000020BC
:1004D000C0010020FEE70000F8B500BFF8BC08BC72
:1004E0009E467047F8B500BFF8BC08BC9E467047F2
:0804F000C901000855010008D4
:0404F80031010008C6
:0404FC0020000020BC
:040000050800048566
:00000001FF
