:020000040800F2
:10000000005000208D030008DD030008DD03000818
:10001000DD030008DD030008DD0300080000000028
:10002000000000000000000000000000DD030008E8
:10003000DD03000800000000DD030008DD03000808
:10004000DD030008DD030008DD030008DD03000810
:10005000DD030008DD030008DD030008DD03000800
:10006000DD030008DD030008DD030008DD030008F0
:10007000DD030008DD030008DD030008DD030008E0
:10008000DD030008DD030008DD030008DD030008D0
:10009000DD030008DD030008DD030008DD030008C0
:1000A000DD030008DD030008DD030008DD030008B0
:1000B000DD030008DD030008DD030008DD030008A0
:1000C000DD030008DD030008DD030008DD03000890
:1000D000DD030008DD030008DD030008DD03000880
:1000E000DD030008DD03000800000000DD03000858
:1000F000DD030008DD030008DD030008DD03000860
:10010000DD030008DD030008DD030008DD0300084F
:10011000DD030008DD030008DD030008DD0300083F
:10012000DD030008DD030008DD030008DD0300082F
:1001300010B5054C237833B9044B13B10448AFF321
:1001400000800123237010BD040000200000000087
:10015000E003000808B5034B1BB103490348AFF3A4
:10016000008008BD0000000008000020E003000837
:1001700070B50F4B0F4DAB42A3EB050607D0002423
:10018000B61055F8043B01349847A642F9D800F060
:1001900027F9094D094B5E1BAB424FEAA60606D074
:1001A000002455F8043B01349847A642F9D870BDA5
:1001B000F8030008F8030008F8030008000400082A
:1001C000704700BF704700BF024B13B1024800F0F8
:1001D00005B8704700000000E9010008002301464F
:1001E0001A46184600F014B838B5074D074C2C1BBA
:1001F000A41005D0013C55F8043D9847002CF9D1D6
:10020000BDE8384000F0F2B804040008000400081B
:100210002DE9F8431B4D0646286898460F4691463F
:10022000FFF7CEFF184B1C681CB3286865681F2DAC
:1002300022DC4EB96B1C0235636044F82570FFF771
:10024000C1FF0020BDE8F883012304EB8501C1F85C
:100250008890D4F88821AB401A43022EC4F8882134
:10026000C1F80881E6D1D4F88C211A43C4F88C2156
:10027000E0E7064C1C60D8E7FFF7A4FF4FF0FF3023
:10028000E0E700BF0000002024000020280000203C
:1002900080B400AF00BFBD4680BC704780B400AFE3
:1002A0000A4B1B68094A43F004031360084B1B68A0
:1002B000074A23F470031360054B1B68044A43F498
:1002C0000013136000BFBD4680BC70471810024089
:1002D0000008014080B400AF064B41F63F721A603F
:1002E000054B00221A60054B05221A6000BFBD466F
:1002F00080BC704714E000E018E000E010E000E08F
:1003000080B483B000AF786006E000BF084B1B6884
:1003100003F48033002BF9D07B685A1E7A60002BDF
:10032000F3D100BF00BF0C37BD4680BC704700BF93
:1003300010E000E080B582B000AF78600A4B202268
:100340001A604FF4FA70FFF7DBFF074B4FF400120F
:100350001A607B68A3F5FA731846FFF7D1FF00BF58
:100360000837BD4680BD00BF1008014080B500AF12
:10037000FFF794FFFFF7AEFF41F28830FFF7DAFF97
:100380004FF4FA60FFF7D6FF00BFF5E70D4885464A
:10039000FFF77EFF0C480D490D4A002302E0D458B8
:1003A000C4500433C4188C42F9D30A4A0A4C0023BF
:1003B00001E013600432A242FBD3FFF7D9FEFFF73E
:1003C000D5FFFEE7005000200000002004000020C0
:1003D0000404000804000020B8010020FEE700002B
:1003E000F8B500BFF8BC08BC9E467047F8B500BF22
:0803F000F8BC08BC9E467047F2
:0803F800C901000855010008CD
:0404000031010008BE
:0404040020000020B4
:040000050800038D5F
:00000001FF
