:020000040800F2
:1000000000500020411200089112000891120008CF
:1000100091120008911200089112000800000000DF
:100020000000000000000000000000009112000825
:1000300091120008000000009112000881110008D0
:100040009112000891120008911200089112000804
:1000500091120008911200089112000891120008F4
:1000600091120008911200089112000891120008E4
:1000700091120008911200089112000891120008D4
:1000800091120008911200089112000891120008C4
:1000900091120008911200089112000891120008B4
:1000A00091120008911200089112000891120008A4
:1000B0009112000891120008911200089112000894
:1000C0009112000891120008911200089112000884
:1000D0009112000891120008911200089112000874
:1000E0009D11000891120008000000009112000804
:1000F0009112000891120008911200089112000854
:100100009112000891120008911200089112000843
:100110009112000891120008911200089112000833
:100120009112000891120008911200089112000823
:1001300010B5054C237833B9044B13B10448AFF321
:1001400000800123237010BD080000200000000083
:100150009412000808B5034B1BB103490348AFF3E1
:10016000008008BD000000000C0000209412000870
:1001700070B50F4B0F4DAB42A3EB050607D0002423
:10018000B61055F8043B01349847A642F9D801F05F
:1001900081F8094D094B5E1BAB424FEAA60606D01B
:1001A000002455F8043B01349847A642F9D870BDA5
:1001B000D0130008D0130008D0130008D81300088B
:1001C000704700BF704700BF024B13B1024800F0F8
:1001D00005B8704700000000E9010008002301464F
:1001E0001A46184600F014B838B5074D074C2C1BBA
:1001F000A41005D0013C55F8043D9847002CF9D1D6
:10020000BDE8384001F04CB8DC130008D8130008F2
:100210002DE9F8431B4D0646286898460F4691463F
:10022000FFF7CEFF184B1C681CB3286865681F2DAC
:1002300022DC4EB96B1C0235636044F82570FFF771
:10024000C1FF0020BDE8F883012304EB8501C1F85C
:100250008890D4F88821AB401A43022EC4F8882134
:10026000C1F80881E6D1D4F88C211A43C4F88C2156
:10027000E0E7064C1C60D8E7FFF7A4FF4FF0FF3023
:10028000E0E700BF00000020280000202C00002034
:1002900080B400AF00BFBD4680BC704780B582B05F
:1002A00000AF00F0E9F800F05DF900F079F900F036
:1002B000F1FB00F08BF900F01EFF00F03DFC00F0B8
:1002C000B3FC5A4800F022FD594800F01FFD594B7D
:1002D0001B78DBB2002BFAD0564B00221A70564B1B
:1002E00000221A70554B00221A7000F004FF00F033
:1002F00023FC534B01221A70524800F007FD52486C
:1003000000F004FD082000F007FE4FF47A7000F0C2
:10031000A5FD082000F012FE4C4800F0F7FC062076
:1003200000F0FAFD4FF47A7000F098FD062000F01E
:1003300005FE474800F0EAFC052000F0EDFD4FF413
:100340007A7000F08BFD052000F0F8FD00F00AFE49
:100350003B4B02221A7000F0AFFD78603D4B1B68EA
:100360003B6000BF3B4B1A683B68D31A7A689A42DD
:1003700004D9314B1B78DBB2002BF3D02E4B1B780A
:10038000DBB2002B0FD0344800F0C0FC00F094FC2E
:1003900000F07CFE00F0E8FE254800F0B7FC284B9A
:1003A00000221A7041E0264B03221A70294B1B6869
:1003B0002A4A136000F0E4FD294800F0A7FC00F091
:1003C00049FC00BF1D4B1B78DBB2002BFAD01C4B45
:1003D00004221A7000F0E0FD224800F097FC224B46
:1003E0001B68184600F0E6FC204800F08FFC1E4B0E
:1003F0001B68B3F57A7F09D81D4800F087FC00F030
:1004000041FC00F082FE00F023FE08E0194800F0F5
:100410007DFC00F051FC00F039FE00F0A5FE044820
:1004200000F074FC064B00221A7050E7AC12000872
:10043000BC120008C5010020C6010020C701002031
:10044000C4010020D4120008DC120008E0120008E9
:10045000E4120008BC010020E8120008C8010020D6
:10046000F812000800130008CC0100201013000847
:10047000181300082413000880B400AF324B1B6827
:10048000314A43F01D031360304B1B682F4A23F0A1
:100490007F6313602D4B1B682C4A43F00873136075
:1004A0002B4B1B682A4A23F00F031360284B1B6851
:1004B000274A43F002031360264B1B68254A23F0AA
:1004C0007F431360234B1B68224A43F00853136099
:1004D000204B1B681F4A23F0FF0313601D4B1B6852
:1004E0001C4A43F0220313601B4B4FF440721A6006
:1004F000174B1B68164A23F470031360144B1B68D8
:10050000134A43F400031360144B4FF400521A6073
:10051000134B1B68124A23F470631360104B1B6863
:100520000F4A43F4306313600D4B1B680C4A23F4ED
:10053000704313600A4B1B68094A43F480431360FD
:1005400000BFBD4680BC704718100240001001403B
:1005500004100140040C0140100C01401010014037
:100560000008014080B400AF0A4B1B68094A43F4FD
:1005700000331360084B00221A60084B40F24132EE
:100580001A60054B42F20C021A6000BFBD4680BCE7
:10059000704700BF1C1002400C440040084400405B
:1005A00080B400AF064B41F63F721A60054B002243
:1005B0001A60054B07221A6000BFBD4680BC704719
:1005C00014E000E018E000E010E000E080B400AFCC
:1005D000114B1B68104A23F0F00313600E4B1B688D
:1005E0000D4A43F0200313600C4B1B680B4A43F485
:1005F000005313600A4B1B68094A43F4005313600D
:10060000084B4FF400521A60074B4FF480721A6087
:1006100000BFBD4680BC704714000140000401408B
:100620000C0401401404014004E100E080B500AF77
:10063000052000F02BFC00BF80BD000080B400AF9F
:10064000034B4FF480721A6000BFBD4680BC7047F8
:10065000100C014080B400AF034B4FF080721A6061
:1006600000BFBD4680BC7047100C014080B400AF95
:10067000034B4FF400721A6000BFBD4680BC704748
:10068000100C014080B400AF034B4FF000721A60B1
:1006900000BFBD4680BC7047100C014080B500AF64
:1006A000FFF7E4FFFFF7CAFFFFF7C0FFFFF7EAFF1E
:1006B000FFF7BCFFFFF7CEFF00BF80BD80B500AFE6
:1006C000FFF7E0FFFFF7B2FFFFF7B8FFFFF7AEFF5E
:1006D000FFF7CCFFFFF7AAFF00BF80BD80B584B055
:1006E00000AF0346FB710023FB7316E097F9073058
:1006F000002B02DAFFF7BAFF01E0FFF7C3FFFFF7B5
:1007000095FFFFF79BFFFFF791FFFFF7A3FFFB7933
:100710005B00FB71FB7B0133FB73FB7B072BE5D994
:10072000FFF7A4FFFFF782FFFFF788FFFFF77EFFC9
:10073000FFF790FF00BF1037BD4680BD80B582B087
:1007400000AF0346FB71FFF7A9FF7820FFF7C6FF54
:100750000020FFF7C3FFFB791846FFF7BFFFFFF745
:10076000ADFF00BF0837BD4680BD80B582B000AF89
:100770000346FB71FFF792FF7820FFF7AFFF4020A1
:10078000FFF7ACFFFB791846FFF7A8FFFFF796FFCE
:1007900000BF0837BD4680BD80B582B000AF0346BC
:1007A0000A46FB711346BB71FB7963F04F03DBB262
:1007B0001846FFF7C3FFBB7903F00F03DBB21846FF
:1007C000FFF7BCFFBB791B09DBB243F01003DBB2C0
:1007D0001846FFF7B3FF00BF0837BD4680BD0000D5
:1007E00080B485B000AF0346FB710B46BB71134666
:1007F0007B71104BFB60FB794F2B02D10E4BFB60E2
:1008000004E0FB79212B01D10C4BFB60BB79FA682A
:1008100013441B781A467B79C3F1040342FA03F3AD
:10082000DBB203F00103DBB218461437BD4680BCCF
:10083000704700BF40130008481300085013000819
:1008400080B485B000AF0346FB710B46BB71134605
:100850007B71284BFB60FB79522B02D1264BFB604E
:1008600034E0FB79412B02D1244BFB602EE0FB7975
:10087000442B02D1224BFB6028E0FB79592B02D19B
:10088000204BFB6022E0FB79532B02D11E4BFB6017
:100890001CE0FB79552B02D11C4BFB6016E0FB7969
:1008A000432B02D11A4BFB6010E0FB79462B02D19F
:1008B000184BFB600AE0FB79492B02D1164BFB6019
:1008C00004E0FB794C2B01D1144BFB60BB79FA6837
:1008D00013441B781A467B79C3F1040342FA03F3ED
:1008E000DBB203F00103DBB218461437BD4680BC0F
:1008F000704700BF58130008601300086813000811
:10090000701300087813000880130008881300088B
:100910009013000898130008A0130008A8130008FB
:1009200080B586B000AF3A601A460346FB710B46AD
:10093000BB7113467B710523FB750723BB7502232F
:100940007B75FB7D97F8202002FB03F3DBB27A79FD
:1009500002FB03F3DAB27B7D97F8201001FB03F36F
:10096000DBB279790139C9B201FB03F3DBB213447D
:100970003B75BB7D97F8202002FB03F3FB743B7DA6
:10098000C3F180035B08BB74FA79BB7C9A4211D334
:10099000BA7997F824309A420CD3FA79B97C3B7D26
:1009A0000B449A4206DABA7997F82410FB7C0B4480
:1009B0009A4201DB002369E0FA79BB7CD31A7B748D
:1009C000BA7997F82430D31A3B74FA7D7B7D1344AF
:1009D000DBB297F8202002FB03F3FB737A7CFB7BEE
:1009E000B2FBF3F3BB73BA7B7B799A4201D300234A
:1009F0004CE0BB7BFA7B02FB03F3DBB27A7CD31ABD
:100A00007B737A7BFB7D97F8201001FB03F39A42FE
:100A100001DB00233AE0BB7B3A6813441B78472B89
:100A20000BD0BB7B3A6813441B784F2B05D0BB7BA4
:100A30003A6813441B78212B14D1BB7B3A681344CA
:100A400018783A7C97F82030B2FBF3F3D9B27A7B6E
:100A500097F82030B2FBF3F3DBB21A46FFF7C0FE83
:100A6000034613E0BB7B3A68134418783A7C97F846
:100A70002030B2FBF3F3D9B27A7B97F82030B2FB87
:100A8000F3F3DBB21A46FFF7DBFE034618461837CE
:100A9000BD4680BD80B500AF642000F0DFF9AE2018
:100AA000FFF74CFED520FFF749FE8020FFF746FEFA
:100AB000A820FFF743FE1F20FFF740FED320FFF7DB
:100AC0003DFE0020FFF73AFE4020FFF737FE8D2065
:100AD000FFF734FE1420FFF731FE2020FFF72EFE33
:100AE0000020FFF72BFEA120FFF728FEC820FFF70C
:100AF00025FEDA20FFF722FE0220FFF71FFE8120ED
:100B0000FFF71CFECF20FFF719FED920FFF716FED6
:100B1000F120FFF713FEDB20FFF710FE4020FFF768
:100B20000DFEA420FFF70AFEA620FFF707FEAF2068
:100B3000FFF704FE00BF80BD80B582B000AF002388
:100B4000FB7114E0FB7900211846FFF725FE002316
:100B5000BB7105E00020FFF708FEBB790133BB71D4
:100B600097F90630002BF5DAFB790133FB71FB793D
:100B7000032BE7D900BF00BF0837BD4680BD80B555
:100B800086B002AF7860084611461A460346FB70ED
:100B90000B46BB7013467B700023FB733CE0FB7B72
:100BA00000211846FFF7F8FD0023BB732DE000235A
:100BB0007B7300233B731EE0FB7BDB00DAB23B7BE5
:100BC0001344FB72FA78F97AB87B7B780193BB788F
:100BD000009313467A68FFF7A3FE0346002B07D065
:100BE0003B7B012202FA03F3DAB27B7B13437B7374
:100BF0003B7B01333B733B7B072BDDD97B7B18466B
:100C0000FFF7B3FDBB7B0133BB7397F90E30002BAD
:100C1000CDDAFB7B0133FB73FB7B032BBFD900BF1A
:100C200000BF1037BD4680BD80B582B000AF084A16
:100C30003B4692E8030018600433197038460C23D1
:100C400001220521FFF79BFF00BF0837BD4680BD8D
:100C50002C13000880B582B000AF094A3B1D126812
:100C6000114619800233120C1A70381D0423022217
:100C70000321FFF784FF00BF0837BD4680BD00BFDA
:100C80003413000880B582B000AF0A4A3B4692E8B0
:100C9000030018600433198002330A0C1A703846B6
:100CA0000A2301220721FFF76AFF00BF0837BD466C
:100CB00080BD00BF3813000880B582B000AF064B7E
:100CC0007B60381D0C2301220421FFF758FF00BF71
:100CD0000837BD4680BD00BF4641494C80B483B053
:100CE00000AF0346FB7100BF064B1B6803F0800397
:100CF000002BF9D0044AFB79136000BF0C37BD46C6
:100D000080BC7047004400400444004080B582B07D
:100D100000AF786006E07B685A1C7A601B78184642
:100D2000FFF7DCFF7B681B78002BF4D100BF00BF0E
:100D30000837BD4680BD000080B586B000AF786042
:100D400000237B617B68002B1DD13020FFF7C6FF9D
:100D50002BE07968164BA3FB0123DA0813469B00AE
:100D600013445B00CA1AD2B27B69591C79613032D4
:100D7000D2B218333B4403F8102C7B680C4AA2FB18
:100D80000323DB087B607B68002BE2D10AE07B69F0
:100D9000013B7B6107F108027B6913441B7818460D
:100DA000FFF79CFF7B69002BF1D11837BD4680BD52
:100DB000CDCCCCCC80B584B000AF78607B68244AC1
:100DC000A2FB03239B09FB607B68214AA2FB031261
:100DD00092094FF47A7101FB02F29B1ABB60F8682A
:100DE000FFF7AAFF2E20FFF779FFBB68194AA2FB85
:100DF00003235B09DBB23033DBB21846FFF76EFF2B
:100E0000BB68154AA2FB0323D908134BA3FB01239C
:100E1000DA0813469B0013445B00CA1AD3B230337E
:100E2000DBB21846FFF75AFFB9680B4BA3FB01234F
:100E3000DA0813469B0013445B00CA1AD3B230335E
:100E4000DBB21846FFF74AFF00BF1037BD4680BD32
:100E5000D34D62101F85EB51CDCCCCCC80B485B086
:100E600000AF7860084B1B68FB6000BF064B1A6838
:100E7000FB68D31A7A689A42F8D800BF00BF1437CB
:100E8000BD4680BC704700BFBC01002080B485B067
:100E900000AF78600023FB6002E0FB680133FB6079
:100EA0007B685A00FB689A42F7D800BF00BF14372E
:100EB000BD4680BC7047000080B400AF114B1A687B
:100EC000114B1B685340104A13600F4B1B680F4AAD
:100ED00003FB02F20E4B13440B4A13600A4B1A68D1
:100EE0000C4BA3FB0213D11A49080B44DB0A40F652
:100EF000A17101FB03F3D31A03F57A731846BD46BB
:100F000080BC7047BC010020040000200D66190061
:100F10005FF36E3C4B17140680B483B000AF0346FA
:100F2000FB71FB79044A012101FA03F3136000BF4E
:100F30000C37BD4680BC70471010014080B483B0B0
:100F400000AF0346FB71FB791033054A012101FA1A
:100F500003F3136000BF0C37BD4680BC704700BF71
:100F60001010014080B500AF0820FFF7E7FF062012
:100F7000FFF7E4FF0520FFF7E1FF00BF80BD0000A1
:100F800080B400AF034B4FF480421A6000BFBD46EF
:100F900080BC7047100C014080B400AF034B4FF091
:100FA00080421A6000BFBD4680BC7047100C0140F3
:100FB00080B400AF034B4FF400421A6000BFBD463F
:100FC00080BC7047100C014080B400AF034B4FF061
:100FD00000421A6000BFBD4680BC7047100C014043
:100FE00080B586B000AF786039607B68002B05D192
:100FF000FFF7EAFF3868FFF731FF24E0134A7B6808
:10100000B2FBF3F33B613B684FF47A7203FB02F2ED
:101010003B695B00B2FBF3F3FB6000237B610CE0F8
:10102000FFF7C6FF3869FFF731FFFFF7CDFF3869DB
:10103000FFF72CFF7B6901337B617A69FB689A4279
:10104000EED3FFF7C1FF1837BD4680BD20A10700D2
:1010500080B582B000AF00237B600DE00A4A7B6858
:1010600032F8133087211846FFF7BAFF1920FFF72F
:10107000F5FE7B6801337B607B680F2BEED900BFE8
:1010800000BF0837BD4680BDB013000880B582B0F0
:1010900000AF00237B6017E000233B600AE0A02143
:1010A0004FF47A70FFF79CFF7820FFF7D7FE3B687C
:1010B00001333B603B68022BF1D94FF49670FFF788
:1010C000CDFE7B6801337B607B68012BE4D900BFD8
:1010D00000BF0837BD4680BD80B500AF0820FFF7D0
:1010E0001BFF0620FFF718FF0520FFF715FFFFF78E
:1010F00047FF00BF80BD80B500AFFFF733FFFFF7AC
:101100004BFFFFF761FF00BF80BD80B582B000AF2D
:1011100000237B6020E00820FFF7FEFE9620FFF70B
:101120009DFE0820FFF70AFF0620FFF7F5FE962038
:10113000FFF794FE0620FFF701FF0520FFF7ECFE06
:101140009620FFF78BFE0520FFF7F8FE9620FFF7AD
:1011500085FE7B6801337B607B68022BDBD900BF97
:1011600000BF0837BD4680BD80B500AFFFF7B4FFB4
:101170004FF4FA60FFF772FEFFF7BDFF00BF80BDBE
:1011800080B400AF044B1B680133034A136000BFF7
:10119000BD4680BC704700BFBC01002080B483B056
:1011A00000AF1E4B1B6803F40053002B31D01C4BC7
:1011B0001B687B60194B4FF400521A60194B1B6877
:1011C0007A68D31A312B23D9164A7B681360164BE1
:1011D0001B78DBB2002B03D1144B01221A7018E0EC
:1011E000114B1B78DBB2022B03D1114B01221A7079
:1011F0000FE00D4B1B78DBB2032B0AD10D4B1B68A4
:101200007A68D31A0C4A13600C4B01221A7000E062
:1012100000BF0C37BD4680BC704700BF14040140BE
:10122000BC010020C0010020C4010020C501002035
:10123000C6010020C8010020CC010020C701002009
:101240000D488546FFF724F80C480D490D4A002348
:1012500002E0D458C4500433C4188C42F9D30A4A6B
:101260000A4C002301E013600432A242FBD3FEF7D4
:101270007FFFFFF713F8FEE700500020000000207A
:1012800008000020DC13000808000020D001002026
:10129000FEE70000F8B500BFF8BC08BC9E467047EA
:0C12A000F8B500BFF8BC08BC9E467047C3
:1012AC0053657269616C2072656164790D0A000086
:1012BC00507265737320627574746F6E20746F2036
:1012CC0073746172740D0A0052656164790D0A00C1
:1012DC00330D0A00320D0A00310D0A00546F6F20D5
:1012EC006561726C79210D0A00000000474F210DD9
:1012FC000A0000005265616374696F6E2054696D59
:10130C00653A2000207365630D0A00005375636312
:10131C00657373210D0A00004661696C210D0A008A
:10132C005245414459000000474F21005355434357
:10133C00455353000E11101711110E000E111111FF
:10134C0011110E0004040404040004001F10101EEC
:10135C0010101F001E11111E141211000E11111F5E
:10136C00111111001E11111111111E0011110A047D
:10137C00040404000F10100E01011E0011111111B4
:10138C0011110E000E11101010110E001F10101E56
:10139C00101010000E04040404040E0010101010A1
:1013AC0010101F0010037003100393020B02930222
:1013BC0010037003100393024B0200000B02000099
:0413CC00000000001D
:0813D000C901000855010008E5
:0413D80031010008D7
:0813DC002400002078563412B1
:04000005080012419C
:00000001FF
