:020000040800F2
:1000000000500020E90600083907000839070008F9
:100010003907000839070008390700080000000008
:100020000000000000000000000000003907000888
:1000300039070008000000003907000839070008E8
:100040003907000839070008390700083907000890
:100050003907000839070008390700083907000880
:100060003907000839070008390700083907000870
:100070003907000839070008390700083907000860
:100080003907000839070008390700083907000850
:100090003907000839070008390700083907000840
:1000A0003907000839070008390700083907000830
:1000B0003907000839070008390700083907000820
:1000C0003907000839070008390700083907000810
:1000D0003907000839070008390700083907000800
:1000E0003907000839070008000000003907000838
:1000F00039070008390700083907000839070008E0
:1001000039070008390700083907000839070008CF
:1001100039070008390700083907000839070008BF
:1001200039070008390700083907000839070008AF
:1001300010B5054C237833B9044B13B10448AFF321
:1001400000800123237010BD040000200000000087
:100150003C07000808B5034B1BB103490348AFF344
:10016000008008BD00000000080000203C070008D7
:1001700070B50F4B0F4DAB42A3EB050607D0002423
:10018000B61055F8043B01349847A642F9D800F060
:10019000D5FA094D094B5E1BAB424FEAA60606D0C5
:1001A000002455F8043B01349847A642F9D870BDA5
:1001B000FC070008FC070008FC070008040800080A
:1001C000704700BF704700BF024B13B1024800F0F8
:1001D00005B8704700000000E9010008002301464F
:1001E0001A46184600F014B838B5074D074C2C1BBA
:1001F000A41005D0013C55F8043D9847002CF9D1D6
:10020000BDE8384000F0A0BA08080008040800085B
:100210002DE9F8431B4D0646286898460F4691463F
:10022000FFF7CEFF184B1C681CB3286865681F2DAC
:1002300022DC4EB96B1C0235636044F82570FFF771
:10024000C1FF0020BDE8F883012304EB8501C1F85C
:100250008890D4F88821AB401A43022EC4F8882134
:10026000C1F80881E6D1D4F88C211A43C4F88C2156
:10027000E0E7064C1C60D8E7FFF7A4FF4FF0FF3023
:10028000E0E700BF0000002024000020280000203C
:1002900080B400AF094B1B68084A43F001031360A8
:1002A00000BF064B1B6803F00203002BF9D0044B80
:1002B00000221A6000BFBD4680BC7047001002409B
:1002C0000410024080B485B000AF78600AE00023DB
:1002D000FB6003E000BFFB680133FB60FB68B3F524
:1002E0007A7FF7D37B685A1E7A60002BEFD100BF6C
:1002F00000BF1437BD4680BC7047000080B483B097
:1003000000AF0346FB7100BF064B1B6803F0800380
:10031000002BF9D0044AFB79136000BF0C37BD46AF
:1003200080BC7047004400400444004080B582B067
:1003300000AF786006E07B685A1C7A601B7818462C
:10034000FFF7DCFF7B681B78002BF4D100BF00BFF8
:100350000837BD4680BD000080B586B000AF78602C
:1003600000237B617B68002B1DD13020FFF7C6FF87
:100370002BE07968164BA3FB0123DA0813469B0098
:1003800013445B00CA1AD2B27B69591C79613032BE
:10039000D2B218333B4403F8102C7B680C4AA2FB02
:1003A0000323DB087B607B68002BE2D10AE07B69DA
:1003B000013B7B6107F108027B6913441B781846F7
:1003C000FFF79CFF7B69002BF1D11837BD4680BD3C
:1003D000CDCCCCCC80B582B000AF78607B68234AAE
:1003E000A2FB03239B091846FFF7B6FF2E20FFF759
:1003F00085FF7B681E4AA2FB032359091D4BA3FB03
:100400000123DA0813469B0013445B00CA1AD3B2D7
:100410003033DBB21846FFF771FF7B68154AA2FB49
:100420000323D908134BA3FB0123DA0813469B00CF
:1004300013445B00CA1AD3B23033DBB21846FFF75D
:100440005DFF79680B4BA3FB0123DA0813469B0081
:1004500013445B00CA1AD3B23033DBB21846FFF73D
:100460004DFF00BF0837BD4680BD00BFD34D6210B1
:100470001F85EB51CDCCCCCC80B582B000AF78607D
:100480007B680F4AA2FB0323DB081846FFF764FFD3
:100490002E20FFF733FF7968094BA3FB0123DA080D
:1004A00013469B0013445B00CA1AD3B23033DBB24D
:1004B0001846FFF723FF00BF0837BD4680BD00BFC9
:1004C000CDCCCCCC80B400AF114B1B68104A43F0AC
:1004D000050313600F4B1B680E4A43F4003313608F
:1004E0000D4B1B680C4A23F4706313600A4B1B68A6
:1004F000094A43F420631360084B40F241321A600A
:10050000074B42F208021A6000BFBD4680BC70472C
:10051000181002401C10024000080140084400402E
:100520000C44004080B500AF1F4B1B681E4A43F4CB
:10053000017313601D4B1B681C4A23F00F031360EB
:100540001B4B1B6823F00703194A43F00503136094
:10055000184B00221A60184B00221A60174B1B68B8
:10056000164A43F0010313600120FFF7ABFE134B63
:100570001B68124A43F00803136000BF0F4B1B684F
:1005800003F00803002BF9D10C4B1B680B4A43F016
:100590000403136000BF094B1B6803F00403002B26
:1005A000F9D100BF00BF80BD181002400008014013
:1005B000102401402C24014034240140082401402F
:1005C00080B400AF0B4B1B680A4A43F00103136071
:1005D00000BF094B1B6803F00203002BF9D0074B47
:1005E0001B689BB2C3F30B039BB21846BD4680BC8D
:1005F000704700BF08240140002401404C24014002
:1006000080B584B000AFFFF75DFFFFF78BFF2D488B
:10061000FFF78CFE2C48FFF789FE2C48FFF786FE7B
:10062000FFF7CEFF0346FB60FB6840F6E44202FBA7
:1006300003F303F2FF72264BA3FB0213D21A5208F4
:100640001344DB0ABB60FB684FF47A7202FB03F3CE
:1006500003F2FF721E4BA3FB0213D21A520813447B
:10066000DB0A7B60FB6841F2883202FB03F303F292
:10067000FF72174BA3FB0213D21A52081344DB0A72
:100680003B601448FFF752FEF868FFF765FE12481A
:10069000FFF74CFEB868FFF79DFE1048FFF746FED7
:1006A0007868FFF7E9FE0E48FFF740FE3868FFF76D
:1006B00053FE0C48FFF73AFE4FF4FA70FFF702FEC4
:1006C00000BFADE75407000874070008A007000842
:1006D00001011000C0070008C8070008D40700087F
:1006E000E4070008F40700080D488546FFF7D0FD31
:1006F0000C480D490D4A002302E0D458C45004337D
:10070000C4188C42F9D30A4A0A4C002301E0136052
:100710000432A242FBD3FFF72BFDFFF771FFFEE788
:1007200000500020000000200400002008080008FD
:1007300004000020B8010020FEE70000F8B500BF6B
:10074000F8BC08BC9E467047F8B500BFF8BC08BCB2
:040750009E4670470A
:10075400506F74656E74696F6D65746572206D6F2A
:100764006E69746F7220737461727465640D0A002B
:100774005041303D414443315F494E302C20555364
:10078400415254325F54583D5041322C20626175BD
:10079400643D393630300D0A00000000567265663B
:1007A4003D332E33303020562C20506F743D35307D
:1007B4003030206F686D0D0A000000004144433D55
:1007C400000000002C20566F6C746167653D0000CA
:1007D40020562C20506F736974696F6E3D000000C1
:1007E40020252C20526573697374616E63653D0026
:0807F400206F686D0D0A000082
:0807FC00C901000855010008C5
:0408040031010008B6
:0408080020000020AC
:04000005080006E900
:00000001FF
